:020000040000fa
:080000000002040000000000f2
:020000040000fa
:040008005a03000097
:020000040000fa
:04000c005a03000093
:020000040000fa
:040010005a0300008f
:020000040000fa
:040014005a0300008b
:020000040000fa
:040018005a03000087
:020000040000fa
:04001c005a03000083
:020000040000fa
:040020005a0300007f
:020000040000fa
:040024005a0300007b
:020000040000fa
:040028005a03000077
:020000040000fa
:04002c00fa020000d4
:020000040000fa
:040030005a0300006f
:020000040000fa
:040034005a0300006b
:020000040000fa
:040038005a03000067
:020000040000fa
:04003c002a03000093
:020000040000fa
:040040005a0300005f
:020000040000fa
:040044005a0300005b
:020000040000fa
:040048005a03000057
:020000040000fa
:04004c005a03000053
:020000040000fa
:040050005a0300004f
:020000040000fa
:040054005a0300004b
:020000040000fa
:040058005a03000047
:020000040000fa
:04005c005a03000043
:020000040000fa
:040060005a0300003f
:020000040000fa
:040064005a0300003b
:020000040000fa
:040068005a03000037
:020000040000fa
:04006c005a03000033
:020000040000fa
:040070005a0300002f
:020000040000fa
:040074005a0300002b
:020000040000fa
:040078005a03000027
:020000040000fa
:04007c005a03000023
:020000040000fa
:040080005a0300001f
:020000040000fa
:040084005a0300001b
:020000040000fa
:040088005a03000017
:020000040000fa
:04008c005a03000013
:020000040000fa
:040090005a0300000f
:020000040000fa
:040094005a0300000b
:020000040000fa
:040098005a03000007
:020000040000fa
:04009c005a03000003
:020000040000fa
:0400a0005a030000ff
:020000040000fa
:0400a4005a030000fb
:020000040000fa
:0400a8005a030000f7
:020000040000fa
:0400ac005a030000f3
:020000040000fa
:0400b0005a030000ef
:020000040000fa
:0400b4005a030000eb
:020000040000fa
:0400b8005a030000e7
:020000040000fa
:0400bc005a030000e3
:020000040000fa
:0400c0005a030000df
:020000040000fa
:0400c4005a030000db
:020000040000fa
:0400c8005a030000d7
:020000040000fa
:0400cc005a030000d3
:020000040000fa
:0400d0005a030000cf
:020000040000fa
:0400d4005a030000cb
:020000040000fa
:0400d8005a030000c7
:020000040000fa
:0400dc005a030000c3
:020000040000fa
:0400e0005a030000bf
:020000040000fa
:0400e4005a030000bb
:020000040000fa
:0400e8005a030000b7
:020000040000fa
:0400ec005a030000b3
:020000040000fa
:0400f0005a030000af
:020000040000fa
:0400f4005a030000ab
:020000040000fa
:0400f8005a030000a7
:020000040000fa
:0400fc005a030000a3
:020000040000fa
:040100005a0300009e
:020000040000fa
:040104005a0300009a
:020000040000fa
:040108005a03000096
:020000040000fa
:04010c005a03000092
:020000040000fa
:040110005a0300008e
:020000040000fa
:040114005a0300008a
:020000040000fa
:040118005a03000086
:020000040000fa
:04011c005a03000082
:020000040000fa
:040120005a0300007e
:020000040000fa
:040124005a0300007a
:020000040000fa
:040128005a03000076
:020000040000fa
:04012c005a03000072
:020000040000fa
:040130005a0300006e
:020000040000fa
:040134005a0300006a
:020000040000fa
:040138005a03000066
:020000040000fa
:04013c005a03000062
:020000040000fa
:040140005a0300005e
:020000040000fa
:040144005a0300005a
:020000040000fa
:040148005a03000056
:020000040000fa
:04014c005a03000052
:020000040000fa
:040150005a0300004e
:020000040000fa
:040154005a0300004a
:020000040000fa
:040158005a03000046
:020000040000fa
:04015c005a03000042
:020000040000fa
:040160005a0300003e
:020000040000fa
:040164005a0300003a
:020000040000fa
:040168005a03000036
:020000040000fa
:04016c005a03000032
:020000040000fa
:040170005a0300002e
:020000040000fa
:040174005a0300002a
:020000040000fa
:040178005a03000026
:020000040000fa
:04017c005a03000022
:020000040000fa
:040180005a0300001e
:020000040000fa
:040184005a0300001a
:020000040000fa
:040188005a03000016
:020000040000fa
:04018c005a03000012
:020000040000fa
:040190005a0300000e
:020000040000fa
:040194005a0300000a
:020000040000fa
:040198005a03000006
:020000040000fa
:04019c005a03000002
:020000040000fa
:0401a0005a030000fe
:020000040000fa
:0401a4005a030000fa
:020000040000fa
:0401a8005a030000f6
:020000040000fa
:0401ac005a030000f2
:020000040000fa
:0401b0005a030000ee
:020000040000fa
:0401b4005a030000ea
:020000040000fa
:0401b8005a030000e6
:020000040000fa
:0401bc005a030000e2
:020000040000fa
:0401c0005a030000de
:020000040000fa
:0401c4005a030000da
:020000040000fa
:0401c8005a030000d6
:020000040000fa
:0401cc005a030000d2
:020000040000fa
:0401d0005a030000ce
:020000040000fa
:0401d4005a030000ca
:020000040000fa
:0401d8005a030000c6
:020000040000fa
:0401dc005a030000c2
:020000040000fa
:0401e0005a030000be
:020000040000fa
:0401e4005a030000ba
:020000040000fa
:0401e8005a030000b6
:020000040000fa
:0401ec005a030000b2
:020000040000fa
:0401f0005a030000ae
:020000040000fa
:0401f4005a030000aa
:020000040000fa
:0401f8005a030000a6
:020000040000fa
:0401fc005a030000a2
:020000040000fa
:040200005a0300009d
:020000040000fa
:040204005a03000099
:020000040000fa
:040208005a03000095
:020000040000fa
:04020c005a03000091
:020000040000fa
:040210005a0300008d
:020000040000fa
:040214005a03000089
:020000040000fa
:040218005a03000085
:020000040000fa
:04021c005a03000081
:020000040000fa
:040220005a0300007d
:020000040000fa
:040224005a03000079
:020000040000fa
:040228005a03000075
:020000040000fa
:04022c005a03000071
:020000040000fa
:040230005a0300006d
:020000040000fa
:040234005a03000069
:020000040000fa
:040238005a03000065
:020000040000fa
:04023c005a03000061
:020000040000fa
:040240005a0300005d
:020000040000fa
:040244005a03000059
:020000040000fa
:040248005a03000055
:020000040000fa
:04024c005a03000051
:020000040000fa
:040250005a0300004d
:020000040000fa
:040254005a03000049
:020000040000fa
:040258005a03000045
:020000040000fa
:04025c005a03000041
:020000040000fa
:040260005a0300003d
:020000040000fa
:040264005a03000039
:020000040000fa
:040268005a03000035
:020000040000fa
:04026c005a03000031
:020000040000fa
:040270005a0300002d
:020000040000fa
:040274005a03000029
:020000040000fa
:040278005a03000025
:020000040000fa
:04027c005a03000021
:020000040000fa
:040280005a0300001d
:020000040000fa
:040284005a03000019
:020000040000fa
:040288005a03000015
:020000040000fa
:04028c005a03000011
:020000040000fa
:040290005a0300000d
:020000040000fa
:040294005a03000009
:020000040000fa
:040298005a03000005
:020000040000fa
:04029c005a03000001
:020000040000fa
:0402a0005a030000fd
:020000040000fa
:0402a4005a030000f9
:020000040000fa
:0402a8005a030000f5
:020000040000fa
:0402ac005a030000f1
:020000040000fa
:0402b0005a030000ed
:020000040000fa
:0402b4005a030000e9
:020000040000fa
:0402b8005a030000e5
:020000040000fa
:0402bc005a030000e1
:020000040000fa
:0402c0005a030000dd
:020000040000fa
:0402c4005a030000d9
:020000040000fa
:0402c8005a030000d5
:020000040000fa
:0402cc005a030000d1
:020000040000fa
:0402d0005a030000cd
:020000040000fa
:0402d4005a030000c9
:020000040000fa
:0402d8005a030000c5
:020000040000fa
:0402dc005a030000c1
:020000040000fa
:0402e0005a030000bd
:020000040000fa
:0402e4005a030000b9
:020000040000fa
:0402e8005a030000b5
:020000040000fa
:0402ec005a030000b1
:020000040000fa
:0402f0005a030000ad
:020000040000fa
:0402f4005a030000a9
:020000040000fa
:0402f8005a030000a5
:020000040000fa
:0402fc005a030000a1
:020000040000fa
:040300005a0300009c
:020000040000fa
:040304005a03000098
:020000040000fa
:040308005a03000094
:020000040000fa
:04030c005a03000090
:020000040000fa
:040310005a0300008c
:020000040000fa
:10040000cf0121000eff24000e0188000000000033
:10041000000020000000e000020032000001200087
:100420002002880014000700a40007000000e0007c
:1004300003003a00c07320000100200002003700d2
:100440000000200001002000810f70000100320038
:100450000f000700000020000000e0000200320052
:100460000000020000000000b206020000000000d0
:100470000040da000000fe00800020000000e000e4
:1004800002003200002020009001880000000600d9
:10049000a1028800800478000000eb001f003700f4
:1004a000e284440054a0b4009905ba00e2844400f8
:1004b00054a0b4009906ba00e284440054a0b400e9
:1004c0000006eb00476fde00fd07b200ae018800ba
:1004d000636ce10003003a000ad801000000eb0061
:1004e0000e003700606ce10008003a00004deb00a0
:1004f0000a05e800020039003420ec000af0a000f0
:100500008b05e900f9ff3e00040037006168e10057
:10051000010032000086eb000b00070019c7ba008b
:100520000e04e0001905ba0003003a000a00e000da
:10053000dbff3a0000000600fe07b200ae028800b2
:100540008a047800f5ff37000cd0a300e20f4d00bd
:100550001c00390089027800354dba000a05e80010
:10056000020039003420ec000af0a0008b05e900fd
:100570000f003200254dba000a05e80002003900dc
:100580003420ec000af0a0008b05e90008003200de
:100590000c00e0000600320015cdba000a05e800a4
:1005a000020039003420ec000af0a0008b05e900bd
:1005b0008984e80054a0b4000b00e000e2ff3a0098
:1005c000000006009902ba00055d78008b05e9007d
:1005d000f7ff3200c82ade00055d78008b05e900d0
:1005e000f3ff32000c00e000f1ff320019ddba0029
:1005f000eeff3700809fbe000000fa00200a800056
:10060000208088000180800020808000808f500042
:1006100005003100218080000080800000805000b3
:100620004080880005003700008080008080ea005c
:100630002080800000804000408088002080800072
:10064000008088000028a9000080fa004f00be004a
:1006500000400600809fbe000000fa00600a800093
:10066000308088001180800030808000808f5000b2
:100670000500310031808000108080000080500033
:100680005080880005003700108080008080ea00dc
:1006900030808000008040005080880030808000e2
:1006a0001080880000a8a9000080fa004f00be005a
:1006b000004006000040da000000fe0000000500d7
:1006c0006011b800bb0037002800fa00889fbe0008
:1006d0008a9fbe008c9fbe0003866b009c000700b3
:1006e0000028a30064003a000128a30068003a0033
:1006f0000008a30062003a000108a30066003a0067
:100700001e009000be08900081064000ed3fb10041
:10071000f4805700ee019000111ab8008e09900085
:10072000311bb8009e099000311cb800511db80063
:10073000f485570046000700fe0190003a000700cc
:100740008b85e8003e0007008e09900040000700fe
:10075000ee019000340007008b85e80038000700a8
:100760008e099000400007009e0990001b18b800f9
:10077000890440000a854800fe019000340007000b
:100780008b85e80038000700ee019000300007007c
:100790008e0990001b18b800890440000a854800a3
:1007a0000a98a30008003a000402420085824a0029
:1007b00006034b0087834b0008044c0089844c00df
:1007c0000a054d008d06e9008482720085027300df
:1007d0004c3add0085027200010032001500200055
:1007e000443ade001400b2004538de00cb45dd009f
:1007f0000b007000c540de00cb4ddd008b8070002b
:100800004549de00cb55dd000b017100c551de000e
:100810000d0378002200070003f0a1000cf0a700f0
:1008200003f0a0005e0037001b18b80085024000ee
:1008300006834800e0834b0060044c00070037004b
:100840001b18b8000603400087834800faff3700f2
:100850001b18b8008703400008844800e0844c005f
:1008600060054d00000006001b18b8000804400099
:1008700089844800faff37000108a30045003a00c8
:100880005800be00000000005801be00e2ff370023
:100890000008a3003f003a0009047800f8ff370081
:1008a0001800200057002000080453000d003d00f0
:1008b0000600200097fc2f000740e1001e003400d6
:1008c00084827200610260008301d1000281d30042
:1008d0008180d3000080d3000804e800f8ff3a00cc
:1008e00047002000610460000504740004046400f3
:1008f0000d00320061004000e080480060014900c6
:10090000e081490003b8a500070032000603e800b3
:100910006538e10004003a008301d1000281d30070
:100920008180d3000080d300f87f20000830e100f0
:1009300003003500080378006000b8006011b800bb
:100940004433dd00f300b2008301730000000600b1
:10095000680447000294be000094be00fc044700f7
:100960008694be008494be00090078004b00070006
:10097000080078004900070099007800814f700056
:100980000b003b000800be00350007004f00b1001f
:1009900003003700f3ff2700f2ff2f006110b900ba
:1009a0004f06be004f05be004f04be000080fa0097
:1009b00000000600889fbe000082700004027100e3
:1009c000048271002400320036432000c50020005c
:1009d0008383cf000a0039000541b1008283cf0034
:1009e000070039000541b1008183cf0004003900c0
:1009f0000541b1008083cf00010039000541b100fd
:100a000085c353006022b800120032000a003b0088
:100a100084827200610260008301d1000281d300f0
:100a20008180d3000080d3000603e8008743e800fc
:100a3000f7ff3a00070037000000400081804800bf
:100a400002014900838149000603e9008743e90068
:100a5000f9ff3a0092ff07004f04be0000000600b5
:100a6000e48240001078a3000700320064024000d6
:100a70001178a3003400be001401be00050032004e
:100a80000330a7000000060035007800350078002c
:100a90001501be000330a000000006005002be0099
:100aa000e40050005003be004439de00f700b200fd
:100ab000f37f200003016100090032000218e10009
:100ac00016003a0085017200830173008381730070
:100ad0000008200015003a004000200013003700f5
:100ae00085017200830173008381730005003a0061
:100af00004a8be0006a8be00100020000b003700ae
:100b00000201e9000402420085824a0006034b000c
:100b100087834b000748a300f9ff32000740a0007d
:100b200004a8be0006a8be00200020008000980097
:080b300092009800000006008d
:020000040000fa
:100b3800fd0b00005a84000077180000f23f000007
:020000040000fa
:100b48000000fa00010a8000f03f2e0000806000db
:100b580000c0a000000a8800010a8000f0f92f00f8
:100b680000806000000a8800010a800080ff2f00d2
:100b7800008060000010a000000a88000142800088
:100b8800f0f82f0080806000000520000100700050
:100b9800004288000028a9002028a8004061a90078
:100ba8000080fa00000006000000fa00410a8000f8
:100bb800f03f2e000080600000c0a000400a8800be
:100bc800410a8000f0f92f0000806000400a880088
:100bd800410a800080ff2f00008060000010a00004
:100be800400a880011428000f0f82f0080806000e1
:100bf80000052000010070001042880000a8a9002c
:100c080020a8a8004861a9000080fa00000006009a
:100c18000000fa000421a900210880000003200038
:100c280001007000200888000021ef0005e1a800fd
:100c38000080fa00000006001000fa00889fbe003d
:100c48008a9fbe0040808000f400b9001100200097
:100c580000017800110009008280d8008000eb00b4
:100c680095fe0700c4002100009abe000292be0053
:100c780050808000f400b9001100200000017800c5
:100c8800110009008280d8008000eb008afe07006e
:100c980044012100009abe000292be00c00021005b
:100ca800100478009004900020059000b005900092
:100cb800c05928009000900020019000b0019000d9
:100cc800100078000203be000002be000800be004b
:100cd8000a01be007afe07006022b8000600200064
:100ce8002700240076fe0700009fbe000297be0082
:100cf8004001210010047800900490002005900025
:100d0800b0059000c0592800900090002001900084
:100d1800b0019000100078000203be000002be007f
:100d28000800be000a01be0065fe07006022b80088
:100d3800060020002700240061fe070040079800f5
:100d48005107980062079800730798004f05be0086
:100d58004f04be000080fa00000006000000fa0000
:100d680015cea80015eea800e0c2b300aee6b700a5
:100d7800f0c2b300afe6b700a5ff070070ff070099
:100d880089ff0700acff0700feff37000000fa00ec
:100d9800020007000080fa00000006000000fa00c8
:100da8002b000700213a800000fe2f000080600021
:100db800203a8800213a8000f0f32f00008060007c
:100dc800203a8800313a800000e02f0080806000df
:100dd8009002200001007000303a880010002000c6
:100de800020007000080fa00000006000200fa0076
:100df800000f78001e01780080072000a10920005c
:100e0800337420008049780081497800824978004d
:100e180042c7bf000004a0000081fb00600420005e
:100e280071052000237420008049780081497800ea
:100e38008249780000000000103a800061006000dc
:100e48000000e000fcff3a000080fa000000060005
:100e58000000fa00c3e8a9000080fa0000000600bc
:100e68000000fa00c3e8a8000080fa0000000600ad
:020000040000fa
:100e7800001000001c0000008000000000000000be
:00000001FF
